{
  "contractName": "Thaifunder",
  "abi": [
    {
      "anonymous": false,
      "inputs": [
        {
          "indexed": true,
          "internalType": "uint256",
          "name": "id",
          "type": "uint256"
        }
      ],
      "name": "CampaignClosed",
      "type": "event"
    },
    {
      "anonymous": false,
      "inputs": [
        {
          "indexed": true,
          "internalType": "uint256",
          "name": "id",
          "type": "uint256"
        },
        {
          "indexed": false,
          "internalType": "address",
          "name": "owner",
          "type": "address"
        },
        {
          "indexed": false,
          "internalType": "string",
          "name": "title",
          "type": "string"
        },
        {
          "indexed": false,
          "internalType": "uint256",
          "name": "goalAmount",
          "type": "uint256"
        },
        {
          "indexed": false,
          "internalType": "uint256",
          "name": "deadline",
          "type": "uint256"
        }
      ],
      "name": "CampaignCreated",
      "type": "event"
    },
    {
      "anonymous": false,
      "inputs": [
        {
          "indexed": true,
          "internalType": "uint256",
          "name": "id",
          "type": "uint256"
        },
        {
          "indexed": false,
          "internalType": "address",
          "name": "donor",
          "type": "address"
        },
        {
          "indexed": false,
          "internalType": "uint256",
          "name": "amount",
          "type": "uint256"
        }
      ],
      "name": "DonationReceived",
      "type": "event"
    },
    {
      "inputs": [
        {
          "internalType": "uint256",
          "name": "",
          "type": "uint256"
        }
      ],
      "name": "campaigns",
      "outputs": [
        {
          "internalType": "string",
          "name": "title",
          "type": "string"
        },
        {
          "internalType": "address",
          "name": "owner",
          "type": "address"
        },
        {
          "internalType": "string",
          "name": "shortDescription",
          "type": "string"
        },
        {
          "internalType": "string",
          "name": "description",
          "type": "string"
        },
        {
          "internalType": "string",
          "name": "tag",
          "type": "string"
        },
        {
          "internalType": "uint256",
          "name": "goalAmount",
          "type": "uint256"
        },
        {
          "internalType": "uint256",
          "name": "earnAmount",
          "type": "uint256"
        },
        {
          "internalType": "uint256",
          "name": "deadline",
          "type": "uint256"
        },
        {
          "internalType": "string",
          "name": "ipfsImageCid",
          "type": "string"
        },
        {
          "internalType": "bool",
          "name": "isClosed",
          "type": "bool"
        }
      ],
      "stateMutability": "view",
      "type": "function",
      "constant": true
    },
    {
      "inputs": [],
      "name": "numberOfCampaigns",
      "outputs": [
        {
          "internalType": "uint256",
          "name": "",
          "type": "uint256"
        }
      ],
      "stateMutability": "view",
      "type": "function",
      "constant": true
    },
    {
      "inputs": [
        {
          "internalType": "address",
          "name": "_owner",
          "type": "address"
        },
        {
          "internalType": "string",
          "name": "_title",
          "type": "string"
        },
        {
          "internalType": "string",
          "name": "_shortDescription",
          "type": "string"
        },
        {
          "internalType": "string",
          "name": "_description",
          "type": "string"
        },
        {
          "internalType": "string",
          "name": "_tag",
          "type": "string"
        },
        {
          "internalType": "uint256",
          "name": "_goalAmount",
          "type": "uint256"
        },
        {
          "internalType": "uint256",
          "name": "_deadline",
          "type": "uint256"
        },
        {
          "internalType": "string",
          "name": "_ipfsImageCid",
          "type": "string"
        }
      ],
      "name": "createCampaigns",
      "outputs": [
        {
          "internalType": "uint256",
          "name": "",
          "type": "uint256"
        }
      ],
      "stateMutability": "nonpayable",
      "type": "function"
    },
    {
      "inputs": [
        {
          "internalType": "uint256",
          "name": "_id",
          "type": "uint256"
        }
      ],
      "name": "donateToCampaigns",
      "outputs": [],
      "stateMutability": "payable",
      "type": "function",
      "payable": true
    },
    {
      "inputs": [
        {
          "internalType": "uint256",
          "name": "_id",
          "type": "uint256"
        }
      ],
      "name": "getDonators",
      "outputs": [
        {
          "internalType": "address[]",
          "name": "",
          "type": "address[]"
        },
        {
          "internalType": "uint256[]",
          "name": "",
          "type": "uint256[]"
        }
      ],
      "stateMutability": "view",
      "type": "function",
      "constant": true
    },
    {
      "inputs": [],
      "name": "getCampaigns",
      "outputs": [
        {
          "internalType": "address[]",
          "name": "owners",
          "type": "address[]"
        },
        {
          "internalType": "string[]",
          "name": "titles",
          "type": "string[]"
        },
        {
          "internalType": "string[]",
          "name": "descriptions",
          "type": "string[]"
        },
        {
          "internalType": "uint256[]",
          "name": "goalAmounts",
          "type": "uint256[]"
        },
        {
          "internalType": "uint256[]",
          "name": "earnAmounts",
          "type": "uint256[]"
        },
        {
          "internalType": "uint256[]",
          "name": "deadlines",
          "type": "uint256[]"
        },
        {
          "internalType": "string[]",
          "name": "tags",
          "type": "string[]"
        },
        {
          "internalType": "string[]",
          "name": "ipfsImageCids",
          "type": "string[]"
        },
        {
          "internalType": "bool[]",
          "name": "isClosed",
          "type": "bool[]"
        }
      ],
      "stateMutability": "view",
      "type": "function",
      "constant": true
    }
  ],
  "bytecode": "0x6080604052600060015534801561001557600080fd5b5061163b806100256000396000f3fe6080604052600436106100555760003560e01c806307ca140d1461005a5780630c962132146100835780630fa91fa9146100a3578063141961bc146100d15780635fd937db14610107578063a6b036331461011c575b600080fd5b34801561006657600080fd5b5061007060015481565b6040519081526020015b60405180910390f35b34801561008f57600080fd5b5061007061009e36600461113f565b610146565b3480156100af57600080fd5b506100c36100be366004611235565b6102c8565b60405161007a9291906112c2565b3480156100dd57600080fd5b506100f16100ec366004611235565b610414565b60405161007a9a9998979695949392919061133d565b61011a610115366004611235565b61071a565b005b34801561012857600080fd5b50610131610989565b60405161007a99989796959493929190611433565b600042831161019c5760405162461bcd60e51b815260206004820181905260248201527f446561646c696e652073686f756c6420626520696e207468652066757475726560448201526064015b60405180910390fd5b6001805460009081526020818152604090912091820180546001600160a01b0319166001600160a01b038d1617905589516101dc918391908c0190610fe7565b5087516101f290600283019060208b0190610fe7565b50865161020890600383019060208a0190610fe7565b50855161021e9060048301906020890190610fe7565b5060058101859055600060068201556007810184905582516102499060088301906020860190610fe7565b50600b8101805460ff191690556001546040517fdc26653af5b99b2da33e2ad69ee6600d9aeccc82b034501db4338309615ca2389061028f908d908d908a908a90611520565b60405180910390a2600180549060006102a78361156d565b9190505550600180546102ba9190611586565b9a9950505050505050505050565b6000818152602081905260408120600a810154606092839291908167ffffffffffffffff8111156102fb576102fb61109c565b604051908082528060200260200182016040528015610324578160200160208202803683370190505b50905060005b828110156103a657600084600a0182815481106103495761034961159d565b60009182526020808320909101546001600160a01b0316808352600988019091526040909120548451919250908490849081106103885761038861159d565b6020908102919091010152508061039e8161156d565b91505061032a565b5082600a01818180548060200260200160405190810160405280929190818152602001828054801561040157602002820191906000526020600020905b81546001600160a01b031681526001909101906020018083116103e3575b5050505050915094509450505050915091565b60006020819052908152604090208054819061042f906115b3565b80601f016020809104026020016040519081016040528092919081815260200182805461045b906115b3565b80156104a85780601f1061047d576101008083540402835291602001916104a8565b820191906000526020600020905b81548152906001019060200180831161048b57829003601f168201915b505050600184015460028501805494956001600160a01b039092169491935091506104d2906115b3565b80601f01602080910402602001604051908101604052809291908181526020018280546104fe906115b3565b801561054b5780601f106105205761010080835404028352916020019161054b565b820191906000526020600020905b81548152906001019060200180831161052e57829003601f168201915b505050505090806003018054610560906115b3565b80601f016020809104026020016040519081016040528092919081815260200182805461058c906115b3565b80156105d95780601f106105ae576101008083540402835291602001916105d9565b820191906000526020600020905b8154815290600101906020018083116105bc57829003601f168201915b5050505050908060040180546105ee906115b3565b80601f016020809104026020016040519081016040528092919081815260200182805461061a906115b3565b80156106675780601f1061063c57610100808354040283529160200191610667565b820191906000526020600020905b81548152906001019060200180831161064a57829003601f168201915b50505050509080600501549080600601549080600701549080600801805461068e906115b3565b80601f01602080910402602001604051908101604052809291908181526020018280546106ba906115b3565b80156107075780601f106106dc57610100808354040283529160200191610707565b820191906000526020600020905b8154815290600101906020018083116106ea57829003601f168201915b505050600b909301549192505060ff168a565b6000818152602081905260409020600b81015434919060ff16156107805760405162461bcd60e51b815260206004820152601f60248201527f43616d706169676e20697320636c6f73656420746f20646f6e6174696f6e73006044820152606401610193565b806005015482826006015461079591906115ed565b11156107e35760405162461bcd60e51b815260206004820152601c60248201527f446f6e6174696f6e206578636565647320676f616c20616d6f756e74000000006044820152606401610193565b336000908152600982016020526040812054900361082357600a81018054600181018255600091825260209091200180546001600160a01b031916331790555b336000908152600982016020526040812080548492906108449084906115ed565b909155505060018101546040516000916001600160a01b03169084908381818185875af1925050503d8060008114610898576040519150601f19603f3d011682016040523d82523d6000602084013e61089d565b606091505b50509050806108e55760405162461bcd60e51b81526020600482015260146024820152732330b4b632b2103a379039b2b7321022ba3432b960611b6044820152606401610193565b828260060160008282546108f991906115ed565b9091555050604080513381526020810185905285917f0b5b4c52969ff7329ecf7ee536409fda87812b15a8622bc6e8cdeab3aee14a26910160405180910390a2816005015482600601541061098357600b8201805460ff1916600117905560405184907f5e6eb33a418de5dbbc17f989f7ae362cdfbb1748c5d603137c767027a354edbc90600090a25b50505050565b6060806060806060806060806060600060015490508067ffffffffffffffff8111156109b7576109b761109c565b6040519080825280602002602001820160405280156109e0578160200160208202803683370190505b5099508067ffffffffffffffff8111156109fc576109fc61109c565b604051908082528060200260200182016040528015610a2f57816020015b6060815260200190600190039081610a1a5790505b5098508067ffffffffffffffff811115610a4b57610a4b61109c565b604051908082528060200260200182016040528015610a7e57816020015b6060815260200190600190039081610a695790505b5097508067ffffffffffffffff811115610a9a57610a9a61109c565b604051908082528060200260200182016040528015610ac3578160200160208202803683370190505b5096508067ffffffffffffffff811115610adf57610adf61109c565b604051908082528060200260200182016040528015610b08578160200160208202803683370190505b5095508067ffffffffffffffff811115610b2457610b2461109c565b604051908082528060200260200182016040528015610b4d578160200160208202803683370190505b5094508067ffffffffffffffff811115610b6957610b6961109c565b604051908082528060200260200182016040528015610b9c57816020015b6060815260200190600190039081610b875790505b5093508067ffffffffffffffff811115610bb857610bb861109c565b604051908082528060200260200182016040528015610beb57816020015b6060815260200190600190039081610bd65790505b5092508067ffffffffffffffff811115610c0757610c0761109c565b604051908082528060200260200182016040528015610c30578160200160208202803683370190505b50915060005b81811015610fda57600081815260208190526040902060018101548c516001600160a01b03909116908d9084908110610c7157610c7161159d565b6001600160a01b039092166020928302919091019091015280548190610c96906115b3565b80601f0160208091040260200160405190810160405280929190818152602001828054610cc2906115b3565b8015610d0f5780601f10610ce457610100808354040283529160200191610d0f565b820191906000526020600020905b815481529060010190602001808311610cf257829003601f168201915b50505050508b8381518110610d2657610d2661159d565b6020026020010181905250806003018054610d40906115b3565b80601f0160208091040260200160405190810160405280929190818152602001828054610d6c906115b3565b8015610db95780601f10610d8e57610100808354040283529160200191610db9565b820191906000526020600020905b815481529060010190602001808311610d9c57829003601f168201915b50505050508a8381518110610dd057610dd061159d565b60200260200101819052508060050154898381518110610df257610df261159d565b6020026020010181815250508060060154888381518110610e1557610e1561159d565b6020026020010181815250508060070154878381518110610e3857610e3861159d565b602002602001018181525050806004018054610e53906115b3565b80601f0160208091040260200160405190810160405280929190818152602001828054610e7f906115b3565b8015610ecc5780601f10610ea157610100808354040283529160200191610ecc565b820191906000526020600020905b815481529060010190602001808311610eaf57829003601f168201915b5050505050868381518110610ee357610ee361159d565b6020026020010181905250806008018054610efd906115b3565b80601f0160208091040260200160405190810160405280929190818152602001828054610f29906115b3565b8015610f765780601f10610f4b57610100808354040283529160200191610f76565b820191906000526020600020905b815481529060010190602001808311610f5957829003601f168201915b5050505050858381518110610f8d57610f8d61159d565b6020908102919091010152600b810154845160ff90911690859084908110610fb757610fb761159d565b911515602092830291909101909101525080610fd28161156d565b915050610c36565b5050909192939495969798565b828054610ff3906115b3565b90600052602060002090601f016020900481019282611015576000855561105b565b82601f1061102e57805160ff191683800117855561105b565b8280016001018555821561105b579182015b8281111561105b578251825591602001919060010190611040565b5061106792915061106b565b5090565b5b80821115611067576000815560010161106c565b80356001600160a01b038116811461109757600080fd5b919050565b634e487b7160e01b600052604160045260246000fd5b600082601f8301126110c357600080fd5b813567ffffffffffffffff808211156110de576110de61109c565b604051601f8301601f19908116603f011681019082821181831017156111065761110661109c565b8160405283815286602085880101111561111f57600080fd5b836020870160208301376000602085830101528094505050505092915050565b600080600080600080600080610100898b03121561115c57600080fd5b61116589611080565b9750602089013567ffffffffffffffff8082111561118257600080fd5b61118e8c838d016110b2565b985060408b01359150808211156111a457600080fd5b6111b08c838d016110b2565b975060608b01359150808211156111c657600080fd5b6111d28c838d016110b2565b965060808b01359150808211156111e857600080fd5b6111f48c838d016110b2565b955060a08b0135945060c08b0135935060e08b013591508082111561121857600080fd5b506112258b828c016110b2565b9150509295985092959890939650565b60006020828403121561124757600080fd5b5035919050565b600081518084526020808501945080840160005b838110156112875781516001600160a01b031687529582019590820190600101611262565b509495945050505050565b600081518084526020808501945080840160005b83811015611287578151875295820195908201906001016112a6565b6040815260006112d5604083018561124e565b82810360208401526112e78185611292565b95945050505050565b6000815180845260005b81811015611316576020818501810151868301820152016112fa565b81811115611328576000602083870101525b50601f01601f19169290920160200192915050565b60006101408083526113518184018e6112f0565b6001600160a01b038d16602085015283810360408501529050611374818c6112f0565b90508281036060840152611388818b6112f0565b9050828103608084015261139c818a6112f0565b90508760a08401528660c08401528560e08401528281036101008401526113c381866112f0565b9150508215156101208301529b9a5050505050505050505050565b600081518084526020808501808196508360051b8101915082860160005b858110156114265782840389526114148483516112f0565b988501989350908401906001016113fc565b5091979650505050505050565b60006101208083526114478184018d61124e565b905060208382038185015261145c828d6113de565b91508382036040850152611470828c6113de565b91508382036060850152611484828b611292565b91508382036080850152611498828a611292565b915083820360a08501526114ac8289611292565b915083820360c08501526114c082886113de565b915083820360e08501526114d482876113de565b848103610100860152855180825282870193509082019060005b8181101561150c5784511515835293830193918301916001016114ee565b50909e9d5050505050505050505050505050565b6001600160a01b0385168152608060208201819052600090611544908301866112f0565b6040830194909452506060015292915050565b634e487b7160e01b600052601160045260246000fd5b60006001820161157f5761157f611557565b5060010190565b60008282101561159857611598611557565b500390565b634e487b7160e01b600052603260045260246000fd5b600181811c908216806115c757607f821691505b6020821081036115e757634e487b7160e01b600052602260045260246000fd5b50919050565b6000821982111561160057611600611557565b50019056fea264697066735822122020d9c9263a4aeab581c53f77b0c5495232bf5a17060d526ff897b418d13c684e64736f6c634300080d0033",
  "immutableReferences": {},
  "source": "// SPDX-License-Identifier: MIT\npragma solidity ^0.8.13;\n\ncontract Thaifunder {\n    struct Campaign {\n        string title;\n        address owner;\n        string shortDescription;\n        string description;\n        string tag;\n        uint256 goalAmount;\n        uint256 earnAmount;\n        uint256 deadline;\n        string ipfsImageCid; // IPFS CID for image\n        mapping(address => uint256) donations; // Maps donor addresses to their total donations\n        address[] donators; // Optional: Keep this if you need to list all donors\n        bool isClosed; // To track if the campaign is closed to donations\n    }\n\n    mapping(uint256 => Campaign) public campaigns;\n\n    uint256 public numberOfCampaigns = 0;\n\n    event CampaignCreated(\n        uint256 indexed id,\n        address owner,\n        string title,\n        uint256 goalAmount,\n        uint256 deadline\n    );\n    event DonationReceived(uint256 indexed id, address donor, uint256 amount);\n    event CampaignClosed(uint256 indexed id); // New event for closing campaign\n\n    // Function to create a campaign\n    function createCampaigns(\n        address _owner,\n        string memory _title,\n        string memory _shortDescription,\n        string memory _description,\n        string memory _tag,\n        uint256 _goalAmount,\n        uint256 _deadline,\n        string memory _ipfsImageCid // CID for IPFS image\n    ) public returns (uint256) {\n        require(_deadline > block.timestamp, \"Deadline should be in the future\");\n\n        // Initialize a new campaign in storage directly\n        Campaign storage newCampaign = campaigns[numberOfCampaigns];\n        newCampaign.owner = _owner;\n        newCampaign.title = _title;\n        newCampaign.shortDescription = _shortDescription;\n        newCampaign.description = _description;\n        newCampaign.tag = _tag;\n        newCampaign.goalAmount = _goalAmount;\n        newCampaign.earnAmount = 0;\n        newCampaign.deadline = _deadline;\n        newCampaign.ipfsImageCid = _ipfsImageCid; // Store IPFS CID\n        newCampaign.isClosed = false; // Initially open for donations\n\n        emit CampaignCreated(\n            numberOfCampaigns,\n            _owner,\n            _title,\n            _goalAmount,\n            _deadline\n        );\n\n        // Increment the number of campaigns\n        numberOfCampaigns++;\n        return numberOfCampaigns - 1;\n    }\n\n    // Function to donate to a campaign\n    function donateToCampaigns(uint256 _id) public payable {\n    uint256 amount = msg.value;\n    Campaign storage campaign = campaigns[_id];\n\n    require(!campaign.isClosed, \"Campaign is closed to donations\");\n    require(campaign.earnAmount + amount <= campaign.goalAmount, \"Donation exceeds goal amount\");\n\n    // Add or update the donor's donation amount\n    if (campaign.donations[msg.sender] == 0) {\n        campaign.donators.push(msg.sender); // Add new donor to the list\n    }\n    campaign.donations[msg.sender] += amount;\n\n    // Transfer funds to the campaign owner\n    (bool sent, ) = payable(campaign.owner).call{value: amount}(\"\");\n    require(sent, \"Failed to send Ether\");\n\n    // Update campaign earnings\n    campaign.earnAmount += amount;\n\n    emit DonationReceived(_id, msg.sender, amount);\n\n    // Close the campaign if the goal is reached\n    if (campaign.earnAmount >= campaign.goalAmount) {\n        campaign.isClosed = true;\n        emit CampaignClosed(_id);\n    }\n}\n\n    // Function to get donors and donations for a campaign\n    function getDonators(uint256 _id)\n    public\n    view\n    returns (address[] memory, uint256[] memory)\n{\n    Campaign storage campaign = campaigns[_id];\n    uint256 donorCount = campaign.donators.length;\n\n    uint256[] memory donationAmounts = new uint256[](donorCount);\n\n    for (uint256 i = 0; i < donorCount; i++) {\n        address donor = campaign.donators[i];\n        donationAmounts[i] = campaign.donations[donor];\n    }\n\n    return (campaign.donators, donationAmounts);\n}\n\n    // Function to get all campaigns\n    function getCampaigns()\n        public\n        view\n        returns (\n            address[] memory owners,\n            string[] memory titles,\n            string[] memory descriptions,\n            uint256[] memory goalAmounts,\n            uint256[] memory earnAmounts,\n            uint256[] memory deadlines,\n            string[] memory tags,\n            string[] memory ipfsImageCids, // Add CID array\n            bool[] memory isClosed // Add closed status\n        )\n    {\n        uint256 campaignCount = numberOfCampaigns;\n\n        // Create arrays for each field\n        owners = new address[](campaignCount);\n        titles = new string[](campaignCount);\n        descriptions = new string[](campaignCount);\n        goalAmounts = new uint256[](campaignCount);\n        earnAmounts = new uint256[](campaignCount);\n        deadlines = new uint256[](campaignCount);\n        tags = new string[](campaignCount);\n        ipfsImageCids = new string[](campaignCount); // Add CID field\n        isClosed = new bool[](campaignCount);\n\n        // Populate arrays with campaign data\n        for (uint256 i = 0; i < campaignCount; i++) {\n            Campaign storage campaign = campaigns[i];\n            owners[i] = campaign.owner;\n            titles[i] = campaign.title;\n            descriptions[i] = campaign.description;\n            goalAmounts[i] = campaign.goalAmount;\n            earnAmounts[i] = campaign.earnAmount;\n            deadlines[i] = campaign.deadline;\n            tags[i] = campaign.tag;\n            ipfsImageCids[i] = campaign.ipfsImageCid; // Include CID\n            isClosed[i] = campaign.isClosed; // Include closed status\n        }\n\n        return (\n            owners,\n            titles,\n            descriptions,\n            goalAmounts,\n            earnAmounts,\n            deadlines,\n            tags,\n            ipfsImageCids,\n            isClosed\n        );\n    }\n}\n",
  "sourcePath": "C:\\Users\\WIN11 64BIT\\Desktop\\Blockchain Project\\web3\\contracts\\Thaifunder.sol",
  "compiler": {
    "name": "solc",
    "version": "0.8.13+commit.abaa5c0e.Emscripten.clang"
  },
  "schemaVersion": "3.4.16",
  "updatedAt": "2024-11-29T08:06:11.912Z",
  "networkType": "ethereum",
  "devdoc": {
    "kind": "dev",
    "methods": {},
    "version": 1
  },
  "userdoc": {
    "kind": "user",
    "methods": {},
    "version": 1
  }
}